:020000040800F2
:10000000D05300205D020008AB380008292F0008FB
:10001000A9380008A70800085D5700080000000084
:100020000000000000000000000000009D0100082A
:10003000990C000800000000F90100083D4E00087E
:1000400077020008770200087702000877020008AC
:1000500077020008770200089B0C0008770200086E
:1000600077020008A10C0008A70C0008770200081E
:1000700001090008770200087702000877020008EB
:10008000770200087702000877020008770200086C
:10009000A90800087702000877020008AD0C0008E4
:1000A000770200087702000877020008770200084C
:1000B000454F0008514F00087702000877020008FA
:1000C000770200087702000877020008770200082C
:1000D00077020008D954000877020008F15500089B
:1000E000770200087702000877020008694F0008CD
:1000F00077020008770200087702000877020008FC
:1001000077020008770200087702000877020008EB
:1001100077020008770200085D4F000877020008A8
:10012000770200080D09000819090008E90B00080A
:1001300077020008770200087702000877020008BB
:10014000B508000877020008770200087702000867
:1001500077020008770200087702000809570008B4
:10016000770200087702000877020008770200088B
:1001700077020008770200087702000800000000FC
:100180007702000877020008DFF80CD000F0E2FAEE
:1001900000480047355C0008D05300202C4B1968FC
:1001A0000868B0E8F04F80F30988BFF36F8F4FF015
:1001B000000080F3118870470000000008480068C4
:1001C000006880F308884FF0000080F3148862B65E
:1001D00061B6BFF34F8FBFF36F8F00DF00BF00BF6B
:1001E00008ED00E0DFF80C00016841F470010160E7
:1001F000704700BF88ED00E0EFF30980BFF36F8F19
:10020000134B1A681EF0100F08BF20ED108A20E96A
:10021000F04F106009B44FF0500080F31188BFF325
:100220004F8FBFF36F8F06F0ADF94FF0000080F3F2
:10023000118809BC19680868B0E8F04F1EF0100F6B
:1002400008BFB0EC108A80F30988BFF36F8F704746
:1002500094000020EFF305807047000006488047B7
:1002600006480047FEE7FEE7FEE7FEE7FEE7FEE79B
:10027000FEE7FEE7FEE7FEE7F14E00088901000811
:100280002DE9F05F0546002092469B4688460646CB
:10029000814640241BE0284641464746224600F05E
:1002A000A3F953465A46C01A914110D31146184635
:1002B000224600F08AF92D1A67EB01084F462246C4
:1002C0000120002100F081F917EB00094E41201EAA
:1002D000A4F10104DFDC484631462A464346BDE826
:1002E000F09F40EA01039B0703D009E008C9121FF1
:1002F00008C0042AFAD203E011F8013B00F8013BE0
:10030000521EF9D27047D2B201E000F8012B491E0B
:10031000FBD270470022F6E710B513460A460446A2
:100320001946FFF7F0FF204610BD2DE9FE4F80462D
:1003300081EA0300C00F0C46009021F0004123F039
:100340000045B8EB0200A94105D24046214690463F
:100350001C460B46024623F00040104347D0270DB1
:10036000C7F30A00C3F30A510290401A01904028D3
:100370006BDAC3F3130040F4801B0098924620B15F
:100380000023D2EB030A63EB0B0B01985946C0F133
:100390004002504600F019F906460D4650465946AF
:1003A000019A00F031F910EB08006141002487EA5E
:1003B000115284EAE7731A4340D0009A62B3019A5B
:1003C000012A4FEA075215DC001B61EB02014FF0D6
:1003D000004202EA0752CDE90042001C41F58011BB
:1003E00032462B4600F068F903B0BDE8F08F404676
:1003F0002146F9E7001B61EB0201001C41F5801367
:1004000000185B412018A2F5001747EB030140EAF2
:10041000D570B6196D4111E06D084FEA360645EA10
:10042000C0754FEA0752001B61EB0201001C41F549
:10043000801149084FEA30000019514132462B46DD
:1004400003B0BDE8F04F00F028B900980122400049
:100450000023D0EB020263EBE073009821464FEAE1
:10046000E074B8EB000061EB0401E9E783F00043BE
:100470005BE781F0004158E72DE9F04D81EA030484
:1004800004F0004B21F0004514464FF0000A23F021
:10049000004150EA050220D054EA01021DD0C5F304
:1004A0000A570246C5F31303C1F31300C1F30A56FA
:1004B00040F4801543F48013A7EB0608101BD646C2
:1004C00008F2FD3873EB050002D308F1010801E0E2
:1004D00092185B41B8F1000F03DA00200146BDE835
:1004E000F08D00204FF48011064684460EE0171B65
:1004F00073EB050705D3121B63EB050306434CEAB8
:10050000010C49084FEA300092185B4150EA01079C
:10051000EDD152EA030012D082EA040083EA050119
:10052000084305D0101BAB4106D20122002306E090
:1005300000224FF0004302E06FF0010253101AEB6B
:1005400006004CEB085110EB0A0041EB0B01BDE833
:10055000F04D00F0A2B80EB5C10F80EAE07008447B
:10056000CA07002140F233438DE80E000A460B46CD
:1005700000F0A2F803B000BD0EB540F23341029185
:100580000021CDE900110A460B4600F095F803B0B2
:1005900000BD01F0004330B421F0004150EA0102F7
:1005A00006D00A0DA2F56072C1F31301002A02DC25
:1005B00030BC00207047440F44EAC104C100E01879
:1005C00030BC00EBC25000F031B8202A04DB203AE6
:1005D00000FA02F1002070479140C2F1200320FA96
:1005E00003F3194390407047202A04DB203A21FA94
:1005F00002F00021704721FA02F3D040C2F120023C
:100600009140084319467047202A06DBCB17203A51
:1006100041FA02F043EAE07306E041FA02F3D04007
:10062000C2F1200291400843194670470029A8BF33
:100630007047401C490008BF20F00100704710B40B
:10064000B0FA80FC00FA0CF050EA010404BF10BCC0
:10065000704749B1CCF1200421FA04F411FA0CF1ED
:1006600018BF012121430843A3EB0C01CB1D4FEA26
:1006700000614FEA102042BF002010BC704700EB21
:10068000C35010440029A4BF10BC7047401C49004F
:1006900008BF20F0010010BC704710B5141E73F1A4
:1006A000000408DA401C41F1000192185B411A4332
:1006B00001D120F0010010BD2DE9F04D92469B467E
:1006C00011B1B1FA81F202E0B0FA80F22032904624
:1006D000FFF77BFF04460F4640EA0A0041EA0B01A0
:1006E00053465A46084313D0114653EA010019D025
:1006F000C8F140025046FFF777FF05460E465046C8
:1007000059464246FFF761FF084305D0012004E047
:1007100020463946BDE8F08D0020054346EAE076E4
:100720002C4337430A986305E40AA0EB0800002233
:10073000FD0A44EA47540A3002D500200146E9E7A1
:10074000010510196941DDE9084500196941BDE855
:10075000F04DA2E7064C074D06E0E06840F00103CB
:1007600094E8070098471034AC42F6D3FFF710FD29
:10077000386D0008586D000810B502F0DDFD02F07C
:100780007BFD02F035FD02F055FD02F0C5FE02F0E2
:10079000E3FE02F05DFF02F0D9FF03F009F802F07A
:1007A00031FF03F027F803F043F803F05FF802F09D
:1007B000F7FE04F0F3FF164800F084F8154800F047
:1007C00081F8134800F0B2FE124800F0AFFE124864
:1007D0000068C16841F01001C16010480068C1683C
:1007E00041F01001C16012220D490B4800F050F891
:1007F00012220C49094800F04BF80221044800F08D
:10080000C3FABDE810400221024800F0BDBA000062
:10081000380B0020600B00208810002008110020F9
:100820004A0800205C08002070B5044690F83900A2
:10083000202801D0212829D121B31AB394F83800F7
:10084000012823D0012084F83800A162A285002568
:10085000E56394F83900212816D0222084F8390065
:1008600008461346666B216802463046091D00F0B3
:10087000CBFF2068416941F04001416184F8385064
:10088000002070BD012070BD2320E7E7022070BD6D
:1008900010B50446FFF7C8FF2068C16841F0100199
:1008A000C160002010BDFEE7014800F07ABB0000E7
:1008B000380B0020014800F074BB0000600B0020E2
:1008C0007047704700B58BB000210122CDE90612B8
:1008D000039108920E22094B04910091019102911B
:1008E0000992984200D1059104492831884200D1EB
:1008F0000592694600F05AFA0BB000BD380B002093
:10090000014800F047BE000048110020014800F0F7
:1009100041BE0000081200202DE9F05FA848A94B55
:10092000A94CC06CA74DA84EA64F0068A549DFF89A
:100930009892DFF890A2DFF890B2DFF888E2A24A3E
:10094000483B603418351836303F09F178090AF110
:10095000300A4FF4006C0BF1300BAEF1180E8842E8
:1009600023D99849543926E0A84233D14FF02008C2
:100970000AE0504535D1E04606E000BF4FF40018CC
:1009800002E000BF4FF0006811EA080F7CD08D49EB
:10099000884253D9904205D0984203D0A04201D05A
:1009A000A8422FD14FF0200C45E08749A83188425A
:1009B00003D984495839096805E083494831884298
:1009C0008249F8D949689042D0D09842CED0A0420E
:1009D000CCD0C9E7B042CED0B842CCD04845CAD07E
:1009E000C7E75845CAD07045C8D0DFF8DC8108F1A8
:1009F00090084045C2D0DFF8CC8108F14808404556
:100A0000C0D1BBE7B04216D0B84214D0484512D08E
:100A1000504510D0584509D0704507D06A499031EB
:100A2000884203D067494831884202D14FF4001C04
:100A300001E04FF0006C63484C382AE06249A8316D
:100A4000884229D9904205D0984203D0A04201D0D3
:100A5000A84202D14FF0200C19E0B04217D0B842A2
:100A600015D0484513D0504511D0584509D0704590
:100A700007D055499031884203D0524948318842C5
:100A800003D14FF4001C02E097E04FF0006C4D489A
:100A90005038C0F800C052E04B494831884227D94D
:100AA000904205D0984203D0A04201D0A84202D182
:100AB0004FF0200C18E0B04216D0B84214D0484590
:100AC00012D0504510D0584509D0704507D03E4946
:100AD0009031884203D03B494831884202D14FF4DB
:100AE000001C01E04FF0006C3848C0F80CC026E054
:100AF000904205D0984203D0A04201D0A84202D132
:100B00004FF0200C18E0B04216D0B84214D048453F
:100B100012D0504510D0584509D0704507D02A4909
:100B20009031884203D027494831884202D14FF49E
:100B3000001C01E04FF0006C2448C0F808C0244CB1
:100B4000207880070CD5207820F0020020702078D3
:100B500040F004002070012211461E4800F096FF6C
:100B60001D4908781D4D80070CD5087820F002003B
:100B70000870087840F0040008700122102128460F
:100B800000F084FF1649087880070CD5087820F01B
:100B900002000870087840F004000870012210215B
:100BA000284600F073FF04F091FF2078400704D539
:100BB0000C48016841F001010160BDE8F09F0000B0
:100BC000300E002058640240106002400060024075
:100BD0001A000020000402401B0000200000024018
:100BE0001C000020103C0140014800F0D3BC000074
:100BF000E80E002001681823CAB2103AB2FBF3F2E3
:100C0000054B6FF30901032A9B5CC36500D9091DDD
:100C10008165084670470000F06C000810B5014679
:100C200000208B698A6A4FF0C07453B1B3F5005F3E
:100C300015D072B1012A0CD0022A0AD0032A09D198
:100C400004E01AB1012A06D0022A03D1C96AC901F7
:100C500000D5012010BDC96AA142FAD010BD002AFA
:100C6000F7D0012AF2D0022AF3D0032AF3D010BD24
:100C700030B50468256825F4802525600468636024
:100C80008368402B036803D099600068C26030BD60
:100C90009A600068C16030BD7047012000F012BE4C
:100CA000082000F00FBE102000F00CBE202000F045
:100CB00009BE704710B50F4C2DED028BA068FFF7F1
:100CC0004AFC41EC180BE0680068406AFFF754FCEE
:100CD0009FED091B53EC112BFFF7CEFB53EC182BA8
:100CE000FFF723FBFFF755FCBDEC028B00EE100A6B
:100CF00010BD0000F40A0020000000000000594070
:100D000004F0E8FD1D4C0026A680668005F06EFD0F
:100D1000DFF86C90DFF86CA04FF00808022704F1B0
:100D20000805022002F09AFE2078012806D0022849
:100D30000FD00328F5D10920287014E085F8008031
:100D4000D9F81400002800DC40426428E9DC277050
:100D5000E7E785F80080E088401C80B2E0806428E6
:100D6000DFD903202070DAF81400002800DC4042AC
:100D70006428D6DC26702F70D3E700000000002026
:100D80003C0A0020780A002090F82020012A07D091
:100D9000022A05D0416A41F4802141620120704756
:100DA000006842690A4342610020704710B590F81C
:100DB0002020012A07D0022A05D0416A41F480216F
:100DC0004162012010BD3B48D0F8002242F00102F0
:100DD000C0F80022D0F8002222F47C52C0F8002291
:100DE000D0F800224B6A42EA0322C0F800220A7DB2
:100DF00002F01F0301229A40D0F81C329343C0F83E
:100E00001C32CB69B3B9D0F80C329343C0F80C3222
:100E10008C894B6864F31F434C6900EBC404C4F82D
:100E200040320C890B6864F31F434C6900EBC40427
:100E3000C4F84432CB69012B16D1D0F80C321343DD
:100E4000C0F80C320C884B6864F31F434C6900EB0C
:100E5000C404C4F840320C89CB6864F31F434C6966
:100E600000EBC404C4F844328B69002BD0F8043280
:100E70000ED01343C0F804320B69002BD0F81432A3
:100E800008D01343C0F81432096A012904D008E0DD
:100E90009343EFE79343F5E7D0F81C121143C0F8F2
:100EA0001C12D0F8001221F00101C0F8001200203D
:100EB00010BD000000640040704730B590F820403D
:100EC000012C05D0022C03D0416A41F480215DE061
:100ED0000468002955D02469A40754D04FF4D8746D
:100EE000056804EB01142D5915F00405956005689B
:100EF0002D594ED0ED08556005682C59C4F34004B7
:100F0000D4604FF4DA74056804EB01142D5905F030
:100F10000F05156105682D59C5F30725956105680D
:100F20002C59240C54614FF4DC72046802EB01125A
:100F3000A4581C700468A458240A5C700468A4585F
:100F4000240C9C700468A258120EDA704FF4DE7202
:100F5000046802EB0112A4581C710468A458240A06
:100F60005C710468A458240C9C710468A258120E89
:100F7000DA71006881B1016941F02001016100204E
:100F800030BDE468A8E7416A41F4001141620120E4
:100F900030BD6D0D1560AFE7C16841F02001C16043
:100FA000EDE72DE9F05F0546006800244669D0F8BA
:100FB00004908768D0F80CB0D0F810A0D0F8188052
:100FC000F10748D0F90714D001218160B80703D593
:100FD000284600F0D8FA0CE0780702D54FF40064F8
:100FE00007E0380702D54FF4805402E0284600F0AD
:100FF000C9FAF80516D529684FF480708860B805DD
:1010000003D5284600F0C1FA0CE0780502D544F477
:10101000005407E0380502D544F4804402E0284635
:1010200000F0B2FAF80316D529684FF480308860D2
:10103000B80303D5284600F0AAFA0CE0780302D5DD
:1010400044F4004407E0380302D544F4803402E05D
:10105000284600F09BFA300707D55FEACB6004D53D
:101060002968102044F40074C86070074FF0080726
:1010700007D55FEA0B7004D52868C760284600F0E2
:1010800099F9B00706D52868C068800702D02846BD
:1010900000F092F9700607D55FEACA6004D52968A6
:1010A000102044F480640861B00607D55FEA0A7036
:1010B00004D528680761284600F034FAF00606D502
:1010C00028680069800702D0284600F02CFAB00397
:1010D00008D55FEAC96005D5296810204860284610
:1010E00000F022FAF00307D55FEA097004D52868FA
:1010F0004760284600F04CFA300446D55FEA497054
:1011000040D5F00504D55FEAC87001D044F0010471
:10111000B00504D55FEA887001D544F0020470057B
:1011200004D55FEA487001D544F00404300529D5A0
:1011300018F0700F26D008F07000402815D006DC9B
:10114000102809D020280AD0302816D10AE05028CB
:101150000ED0602811D10EE044F008040DE044F0F8
:1011600010040AE044F0200407E044F0400404E0E6
:1011700044F0800401E044F480742868816921F01F
:1011800070018161296804204860002C05D0686ADC
:10119000204368622846FFF78FFEBDE8F09F70B5D8
:1011A000040003D094F8200010B104E0012070BDC9
:1011B000204600F081F82068016821F002010160FA
:1011C00000F06AFC0546052604E000F065FC401BC3
:1011D0000A2811D8206840688007F6D42068016882
:1011E00041F00101016000F057FC05460BE000F002
:1011F00053FC401B0A2806D9606A40F40030606244
:1012000084F82060D2E720684068C007EFD0207ED5
:101210000128206801683DD021F080010160607ED6
:1012200001282068016838D021F040010160A07ECB
:1012300001282068016833D021F020010160E07EA0
:101240000128206801682ED041F010010160207F44
:1012500001282068016829D021F008010160607F21
:1012600001282068016824D021F004010160D4E93C
:1012700002010843D4E90412114308436168491E7E
:1012800008432168C86100206062012084F82000C2
:10129000002070BD41F08001C0E741F04001C5E78A
:1012A00041F02001CAE721F01001CFE741F0080129
:1012B000D4E741F00401D9E7F0B587B00446142122
:1012C0006846FFF727F8364B3648DFF8D0E0196854
:1012D000D4F800C0334A0325022609271030002421
:1012E000491CF44522D11960012907D1016841F058
:1012F00000710160006800F000700590106840F017
:10130000080010601068CDE9005600F00800CDE933
:10131000047069462448CDE9024500F0DFFA002256
:101320000521142000F03EFE142032E0DFF87CE0BE
:10133000F44530D1D0F800C04CF0806CC0F800C04B
:10134000D0F800C001290CF0806CCDF814C01960F1
:1013500007D1016841F000710160006800F0007081
:101360000590106840F002001060106802AB00F0B9
:10137000020005906020CDE9000683E8B0006946D0
:101380000B4800F0ABFA00220521402000F00AFED5
:10139000402000F0F9FD07B0F0BD000000640040FF
:1013A0005400002030380240000C02400068004029
:1013B00000040240704700002DE9F04151490B261E
:1013C000514C41F6265588423CD1504B504A0021A1
:1013D000FFF773FD4E480068A0F50070013822D079
:1013E000042811D0052809D14A48816A4A1C826222
:1013F0000A2905D841F6583101818181BDE8F08183
:1014000086624249434851E0404901201039087042
:10141000A06A411CA1620A2802D82581A581EDE7B6
:101420003A49A66241E03C48816A4A1C82620A2924
:1014300001D8364955E08662BDE8F0413349364867
:1014400004F024BA35498842D8D1304B304A0833A9
:101450001C320021FFF731FD2D4840F202271C30DD
:10146000332300682E49A0F20222B84222D00DDCBC
:10147000B0F5887FC2D0B0F5A87F3DD0B0F5B07F81
:10148000BCD1BDE8F0412548FFF71BBA012A1FD0A7
:10149000032AB3D1012002F0CDFAA06A411CA16257
:1014A0000A28BAD91949A66208311748BDE8F0419F
:1014B00004F0CEB9886A421C8A62322803D81349E4
:1014C000174808310DE08B621049154808310FE0CC
:1014D0004A6E501C486612483C30322A05D80B49E7
:1014E0000831BDE8F04104F0F0B94B660749083116
:1014F000BDE8F04104F08CB9BDE8F0410748FFF7C2
:10150000DFB90000380B0020780A002074000020AA
:10151000681200203C0A002088090020600B00208F
:10152000C4090020704770477047000070B504463A
:1015300090F82000012804D0606A40F40020606226
:1015400018E0022084F820002068016821F00101E1
:10155000016000F0A1FA05460EE000BF00F09CFA21
:10156000401B0A2808D9606A40F4003060620520F8
:1015700084F82000012070BD20684068C007EDD1CC
:10158000606270BD70477047704770477047704722
:10159000704700002DE9F84304464FF00009CDF8EC
:1015A000009063484FF41651A56D0068B0FBF1F749
:1015B0002E6894F85C10082000FA01F131420FD037
:1015C00021680A6852070BD50A6822F004020A60F3
:1015D00094F85C108840A860606D40F00100606580
:1015E00094F85C104FF0010808FA01F0304208D07E
:1015F00021684969090604D5A860606D40F00200C1
:10160000606594F85C1004208840304208D021685E
:101610000968890704D5A860606D40F00400606522
:1016200094F85C1010208840304218D02168096876
:10163000090714D5A86020680168490304D500682B
:10164000000308D5A16C07E00168C90503D401684F
:1016500021F008010160216C09B12046884794F807
:101660005C1020208840304231D021680968C906CA
:101670002DD5A86094F8350005282068016806D0AB
:10168000490347D5006800031DD4616C1CE021F0BC
:10169000160101602068416921F080014161206CE0
:1016A00008B9A06C20B12068016821F00801016030
:1016B00094F85C103F208840A86084F8349084F847
:1016C0003580216D1FE0E16B09B120468847606DD0
:1016D00000282BD0606DC00714D0052084F8350099
:1016E0002068016821F0010101600098401C009011
:1016F000B84203D820680068C007F6D184F8349057
:1017000084F83580E16C002910D001B02046BDE896
:10171000F04308470168C905D5D4016821F01001DC
:10172000016084F8349084F83580CCE7BDE8F88314
:10173000900000202DE9F041044600F0ADF9064686
:101740005CB1002584F83450022084F8350020680C
:10175000016821F0010101600DE00120BDE8F08188
:1017600000F09AF9801B052805D920206065032028
:1017700084F83500F2E720680068C007F0D12268DD
:10178000116820480140D4E901031843D4E9033625
:101790003343184363691843A3691843E369184343
:1017A000236A18430843616A042903D1D4E90B135F
:1017B00019430843106020684069666A20F00701F9
:1017C00030460E43012704280CD1A06A0643E06A84
:1017D00040B12046FFF722FA20B14020606584F82E
:1017E0003570BAE7206846612046FFF703FA94F89F
:1017F0005C203F2191408160656584F83570002050
:10180000ACE700003F8010F070B5044690F834005B
:10181000002501280CD0012084F8340094F83560AC
:101820000020012E06D084F834000225284670BD21
:10183000022070BD022684F8356060652046FFF7FF
:1018400017FA2068016841F001010160EEE700002D
:101850001649102818D020281DD0082825D1144852
:10186000017841F001010170017811F0010101706E
:101870001BD0017821F001010170017841F00201D3
:1018800001700C4804F0ACB90B48027842F0010238
:1018900002700A4800E00A48027842F00102027031
:1018A0000878002801D004F011B970471D0000200D
:1018B0003F0000207C0900201B0000201C000020AD
:1018C0001A000020044910B50A68024202D00860DC
:1018D000FFF7BEFF10BD0000143C01402DE9F84F9A
:1018E000DFF87CB100224FF001084FF0030A4FF0FF
:1018F0000F090BF1040E00BF0B6808FA02F4234035
:10190000A3426ED14D68022D01D0122D0ED1D50803
:1019100000EB850CDCF820505607F70E09FA07F6A5
:10192000B5430E69BE402E43CCF8206006685500D2
:101930000F790AFA05FC07F0030726EA0C06AF4008
:10194000374307604E68012E05D0022E03D0112EBA
:1019500001D0122E0ED18668CF6826EA0C06AF4061
:10196000374387604668A6430C79C4F3001494405B
:1019700034434460C6688C6826EA0C06AC403443A5
:10198000C4604C68E40065D5364C256845F4804554
:101990002560246822F0030504F480440094324C4E
:1019A0002E19D6F8084895072F0F09FA07F5AC430A
:1019B0002E4DA84201D1002524E02D4DA84201D191
:1019C00001251FE02B4DA84201D102251AE02A4D26
:1019D000A84201D1032515E0284DA84202D10425D3
:1019E00010E037E0264DA84201D105250AE0254D3B
:1019F000A84201D1062505E0234DA84201D10725C3
:101A000000E00825BD402543C6F80858DBF8004033
:101A10005D464E689C43F60300D51C432C60DEF8FF
:101A2000004075464E689C43B60300D51C432C60AD
:101A30000B4D08352C684E689C43F60200D51C43BC
:101A40002C60074D0C352C684E689C43B60200D5BF
:101A50001C432C60521C102AFFF44EAFBDE8F88FD7
:101A6000003C014044380240003001400000024088
:101A70000004024000080240000C02400010024036
:101A80000014024000180240001C02400AB18161AB
:101A900070470904FBE700000148806870470000B8
:101AA0008400002070B504001BD094F83D00002590
:101AB00020B984F83C50204600F0AAF9242084F88C
:101AC0003D002068016821F00101016000F054FB35
:101AD0004D4A6168914201D84C4900E04C49884226
:101AE00001D2012070BD4B492368B0FBF1F15E6863
:101AF00026F03F060E435E606368934206D94FF4BA
:101B0000967359434FF47A73B1FBF3F12368491C80
:101B10001E6A26F03F06314319626168914210D86F
:101B20004900401EB0FBF1F2521CC2F30B02042A22
:101B300001D2042022E0B0FBF1F0401CC0F30B0006
:101B40001CE0A368F3B301EBC10202EB0116421ED5
:101B5000B2FBF6F2521C42F48042120549D093B314
:101B600001EBC10202EB0111401EB0FBF1F0401C81
:101B7000C0F30B0040F4804040F400402168CA6983
:101B80004CF6FF739A431043C861D4E90701084338
:101B900021680A6822F0C00210430860D4E90301FA
:101BA00001432068826848F2FF339A431143816001
:101BB000D4E9050108432168CA6822F0FF021043F6
:101BC000C86001E00EE016E02068016841F0010104
:101BD00001602564202084F83D00256384F83E5090
:101BE000002070BD01EB4106421EB2FBF6F2521C12
:101BF000B3E70120C2E701EB4101401EB0FBF1F069
:101C0000401CC0F30B00B7E7A086010080841E00D3
:101C100000093D0040420F002DE9FF4F83B09A4676
:101C2000DDE9119793460446DDF84080FFF734FF65
:101C3000054694F83D00202870D1192301227149EE
:101C40002046009501F0FBF90028F5D194F83C00FE
:101C5000012863D0012084F83C0020680168C9078E
:101C600003D1016841F0010101602068016821F49D
:101C700000610160222084F83D00402084F83E008D
:101C800000262664C4F82480A4F82A90608D20855C
:101C90005D48E062CDE9007553465A4620460499F6
:101CA00001F05AF900287CD1208DD0B1012821D033
:101CB0000228206824D0416980690090208D032883
:101CC00069D801282BD0514902283B464FF0000229
:101CD000009559D08846204601F0B1F9002860D11E
:101CE0003CE02068416981690091016841F400711C
:101CF000016077E02068016821F480610160F0E70D
:101D0000016821F4806101602068016841F400618C
:101D10000160206841698069009063E06FE02A46B5
:101D20003946204601F00AFA98BB20680069616ACA
:101D300008704EE02068016841F40071016020687D
:101D40000069616A0870606A401C6062218D491EEA
:101D50002185618D491E6185216838E02068016810
:101D600021F48061016020680069616A0870606A1E
:101D7000401C6062208D401E2085608D401E608565
:101D80003B46002241460095204601F058F900B933
:101D9000D0E706E0FFE72A463946204601F0CEF9B3
:101DA00018B1012007B0BDE8F08F20680069616AB2
:101DB0000870606A401C6062218D491E2185618D1A
:101DC000491E618521684A69D24352070AD40969CC
:101DD0000170606A401C6062208D401E2085608D0D
:101DE000401E6085208D00287FF468AF202084F895
:101DF0003D0084F83E6084F83C600020D2E7022079
:101E0000D0E70000020010000000FFFF0400010006
:101E1000F0B587B0044614216846FEF77BFA1A49EC
:101E2000206888422DD11948016841F00401016001
:101E3000016801F004010591016841F001010160B0
:101E40000068122400F0010005904FF40070012595
:101E5000032604278DE8F10069460D48FFF73EFD93
:101E600028028DE8F10069460A48FFF737FD074868
:101E70001030016841F400010160006800F40000C6
:101E8000059007B0F0BD0000005C00403038024013
:101E900000080240000002400248816802781144B4
:101EA00081607047840000200B4810B5016841F440
:101EB00000710160016841F480610160016841F4D2
:101EC00080710160032000F08DF8002000F006F81A
:101ED00000F03EF8002010BD003C024010B5014665
:101EE00088B000221C2000F05DF81C2000F04CF8A7
:101EF00014480024016841F001010160006805A94F
:101F000000F001000690684600F016F900F034F980
:101F10000D494000B0FBF1F10C484FF08042491EE2
:101F2000026040F2E732C0E90324C0E9011400F086
:101F300010FC10B1012008B010BD044800F086FC70
:101F4000F9E700004038024040420F00A012002094
:101F50000C4882B0016841F480410160006800F4DF
:101F6000804000900748001F016841F080510160E7
:101F70000068002200F0805000900F21901E02B0F7
:101F800000F010B844380240002809DB00F01F02BE
:101F9000012191404009800000F1E020C0F80011CB
:101FA00070470000F0B40E4B1B680C46C3F30223CD
:101FB000C3F10705042D00D90425191D072901D2F5
:101FC000002300E0DB1E012606FA05F1491E214030
:101FD00099409E40761E16403143F0BC03F0BFBBD3
:101FE0000CED00E0064900F0070208684FF6FF0319
:101FF000184040EA0220034A10430860704700007E
:102000000CED00E00000FA052DE9F0470E46050052
:1020100065D0DFF81481D8F80000F7B200F00F00A7
:10202000B04207D288F80070D8F8000000F00F0026
:10203000B04254D128683D4C810712D5400703D5E2
:10204000206840F4E05020602878000703D520681D
:1020500040F4604020602068A96820F0F000084348
:1020600020602878C0072DD03049686808390128D9
:1020700012D0022813D0032811D00968890700293B
:102080002DDA216821F0030101432160FFF704FDEF
:10209000814641F2883A0EE009688903EFE7096852
:1020A0008901ECE7FFF7F8FCA0EB0901514502D9E3
:1020B0000320BDE8F0872068696800F00C00B0EBF1
:1020C000810FEFD1D8F80010404601F00F01B14266
:1020D00007D90770006800F00F00B04201D001205E
:1020E000E7E72878400705D52068E96820F4E05044
:1020F000084320602878000706D52068296920F465
:10210000604040EAC100206000F056F82168084AAB
:10211000C1F30311515CC840064908600020FFF775
:10212000DDFE0020C5E70000003C02400838024008
:10213000F86C0008900000200F2202600C4A13681F
:1021400003F003034360136803F0F0038360136834
:1021500003F4E053C36012684FF4E05303EAD20281
:1021600002610448006800F00F000860704700003A
:1021700008380240003C02400448054900680968EC
:10218000044AC1F38221515CC8407047900000208E
:1021900008380240086D00080448054900680968CD
:1021A000044AC1F34231515CC8407047900000209E
:1021B00008380240086D0008154810B5006810F096
:1021C0000C02144813D01449042A0FD0082A0ED147
:1021D0000F4C241F2268236802F03F025B0207D5E0
:1021E0002068C0F38810A0FB010106E0084610BD7E
:1021F0002168C1F38811A1FB00010023FEF740F81C
:102200002168C1F30141491C4900B0FBF1F010BD48
:10221000083802400024F400001BB7002DE9F84FF5
:10222000050076D02878DFF8F8B2BE4CC00749D058
:10223000DBF800105846C1F38101012908D000687D
:10224000C0F3810002280AD1201D0068400206D593
:102250002068800336D568680028E2D032E06868DC
:10226000B0F5803F10D0B0F5A02F206810D020F43A
:1022700080302060206820F4802020606868A0B151
:10228000FFF70AFC06460CE0206840F48030F4E7D3
:1022900040F480202060F7E7FFF7FEFB801B6428F6
:1022A00073D820688003F7D50CE0FFF7F5FB0646EE
:1022B00005E000BFFFF7F0FB801B6428F0D8206822
:1022C0008003F7D42878DFF8608280074FF0000998
:1022D0003ED5DBF80010584611F00C0F09D000680D
:1022E000C0F3810002280BD18D48001F0068400216
:1022F00006D42068800715D5E868012809D111E0C7
:10230000E868B8B10120C8F80000FFF7C5FB064631
:1023100005E002E1FFF7C0FB801B0228C0D820685F
:102320008007F7D52068296920F0F80040EAC1004D
:1023300020600DE0C8F80090FFF7AEFB064604E011
:10234000FFF7AAFB801B02281FD820688007F7D45C
:102350002878000722D5724E744869696C3671B1CD
:1023600001210160FFF798FB074604E0FFF794FBAB
:10237000C01B022809D830688007F7D50EE0C0F8E6
:102380000090FFF789FB074605E083E0FFF784FB39
:10239000C01B02287ED830688007F7D42878400711
:1023A00068D5DFF87CA100270AF1380ADAF80000C6
:1023B000C0000BD4DAF8001041F08051CAF80010C8
:1023C000DAF80000012700F080500090584E306885
:1023D000C00510D4306840F480703060FFF75CFBBB
:1023E000009005E0FFF758FB0099401A022851D8E9
:1023F0003068C005F6D54A4EA868683601280FD067
:102400000528306810D020F001003060306820F0DE
:1024100004003060A868B8B1FFF73EFB00900FE001
:10242000306840F00100F4E740F004003060F7E766
:10243000FFF732FB0099411A41F28830814264D89B
:1024400030688007F4D50EE0FFF726FB009007E028
:10245000FFF722FB0099411A41F28830814254D89B
:1024600030688007F4D42FB1DAF8001021F08051E1
:10247000CAF80010A869C0B3DBF80010C1F38101ED
:1024800002294AD00228484607D0C8F86000FFF762
:1024900003FB00E039E005463AE04746C8F8600033
:1024A000FFF7FAFA064604E0FFF7F6FA801B022867
:1024B0002BD820688001F7D4D5E907010843A96A21
:1024C0001C4A490802EB01416A6A41EA8211084349
:1024D00095F82C1040EA01611148001F01600120AD
:1024E0003866FFF7D9FA054605E014E0FFF7D4FA9D
:1024F000401B022809D820688001F7D50BE000BFF7
:10250000FFF7CAFA401B022802D90320BDE8F88F62
:1025100020688001F4D40020F8E70120F6E70000ED
:10252000083802400038024000004742800E47420F
:10253000007000400000FFFF70B5040005D00025CA
:10254000A56294F8510010B106E0012070BD84F836
:102550005050204600F030F8022084F851002068E6
:10256000016821F040010160D4E901010843D4E988
:1025700003121143084361690843218B01F4007180
:102580000843E1690843216A0843A16A08432168B6
:102590000860A069042101EA1040616A08432168CB
:1025A00048602068C16921F40061C161656501204E
:1025B00084F85100002070BD2DE9F04186B0064638
:1025C00014216846FDF7A6FE35493068884263D17C
:1025D00034480024016841F480510160006800F42F
:1025E000805005902F481438016841F002010160C5
:1025F000016801F002010591016841F001010160EB
:102600000068022500F0010005901820CDE90005C2
:1026100002AA03274FF0050882E890016946224884
:10262000FFF75CF98020CDE9000502AA694682E83F
:1026300090011E48FFF752F91E4D1D487F06286085
:10264000C5E901744FF48068C5E903486C617812EC
:10265000AC61C5E9074028466C62FFF76BF808B12A
:10266000FEF727FBF564AE63124D11486035183054
:10267000E5E802074020A5E811010E4845F8144995
:102680006030AC61EC612C626C62FFF753F808B10A
:10269000FEF70FFBB564AE6306B0BDE8F081000045
:1026A0000030014044380240000402400000024073
:1026B00040640240880E00207047704710B590F8C3
:1026C0003C20012A22D0012280F83C20CA688C6874
:1026D00022F4407222434C6822F4806222430C6848
:1026E00022F4006222430C6922F4805222434C6996
:1026F00022F400522243C969002322F480420A4393
:1027000001684A6480F83C30002010BD022010BDF2
:1027100070B590F83C20012A19D0012400F83C4FF4
:102720000222427050F83C3C5A689D6822F07006C4
:102730000A684968324325F0800529435A6050F8F9
:102740003C2C9160447000210170084670BD02204D
:1027500070BD10B5040003D094F83D0010B107E03F
:10276000012010BD002084F83C00204600F00CF849
:10277000022084F83D00211D206802F0FBFB0120AF
:1027800084F83D00002010BD08B5016829482A4A98
:10279000814207D1106840F001001060106800F01D
:1027A00001002FE02448254B001F99420ED10168FB
:1027B00041F0020101600068002200F00200009078
:1027C00005211D20FFF7EEFB1D202EE01C4B99423A
:1027D0000ED1016841F0100101600068002200F094
:1027E0001000009005213620FFF7DCFB36201CE0AE
:1027F000144B994208D1106840F400301060106802
:1028000000F40030009008BD0F4A9142FBD10168EE
:1028100041F0400101600068002200F0400000909B
:1028200005212B20FFF7BEFB2B20BDE80840FFF75A
:10283000ABBB0000000001404438024000040040EF
:102840000010004000440140001800400168CA68C0
:1028500042F00102CA600068816801F007010629A0
:1028600003D0016841F0010101600020704770B59C
:10287000044690F83C00012817D0012584F83C500C
:10288000022084F83D002068826822F0770222F45A
:102890007F4282600868502830D00DDC20284DD05F
:1028A00005DC98B310283BD148E0022070BD3028E9
:1028B00044D0402834D139E0602828D0702806D090
:1028C000B0F5805F2CD0B0F5005F29D10AE0CB686D
:1028D000D1E90121206802F0B1FB2068816841F054
:1028E000770109E0CB68D1E90121206802F0A6FB5D
:1028F0002068816841F48041816011E0CA684968BC
:10290000206802F06FFC5021206807E016E0CA68DA
:102910004968206802F077FC6021206802F098FB8B
:1029200084F83D50002084F83C0070BDCA684968B6
:10293000206802F057FC40212068EFE7226801463A
:102940001046EBE7704770B50446006801694FF028
:102950000005C943890715D4C168C943890711D443
:10296000E91E0161012020772068806980072046E8
:1029700002D0FFF7E7FF04E000F0F0F8204600F097
:1029800072F9257720680169C943490717D4C168DE
:10299000C943490713D46FF0040101610220207775
:1029A0002068806910F4407F204602D0FFF7CAFFFC
:1029B00004E000F0D3F8204600F055F925772068B0
:1029C0000169C943090716D4C168C943090712D46C
:1029D0006FF008010161042020772068C06980073A
:1029E000204602D0FFF7AEFF04E000F0B7F8204623
:1029F00000F039F9257720680169C943C90617D461
:102A0000C168C943C90613D46FF0100101610820E1
:102A100020772068C06910F4407F204602D0FFF77D
:102A200091FF04E000F09AF8204600F01CF92577A9
:102A300020680169C943C90708D1C168C943C907EA
:102A400004D1891E0161204600F00EF92068016959
:102A5000C943090609D4C168C943090605D46FF002
:102A6000800101612046FFF727FE20680169C94304
:102A7000490609D4C168C943490605D46FF040012D
:102A80000161204600F010F920680169C9438906F8
:102A90000BD4C168C943890607D46FF020010161D6
:102AA0002046BDE87040FFF708BE70BD70B586B027
:102AB000044614216846FDF72DFC224A21680024B3
:102AC00021480225914225D1016841F001010160B0
:102AD000016801F001010591016841F010010160F8
:102AE0000068012600F0100005904FF4406000904F
:102AF000CDE90154CDE9034669461448FEF7EEFEE0
:102B00004FF420600090CDE90154CDE903466946B9
:102B10000F4813E00F4A914212D1016841F00201BF
:102B200001600068694600F0020005909015009071
:102B3000CDE901540320CDE903400748FEF7CEFE5E
:102B400006B070BD00000140303802400000024075
:102B5000001002400044014000040240704770B57C
:102B6000044690F83C000D4601280DD0012684F85B
:102B70003C60022084F83D0042B1042A18D0082AA3
:102B80002AD00C2A4DD139E0022070BD206802F015
:102B900067FA2068816941F00801816120688169D4
:102BA00021F004018161206881692A69114311E0E3
:102BB000206802F085FA2068816941F40061816132
:102BC0002068816921F480618161206881692A69B6
:102BD00041EA0221816124E0206802F0A7FA20681E
:102BE000C16941F00801C1612068C16921F0040197
:102BF000C1612068C1692A69114311E0206802F0AF
:102C0000C9FA2068C16941F40061C1612068C169E5
:102C100021F48061C1612068C1692A6941EA022109
:102C2000C16184F83D60002084F83C0070BD10B59F
:102C3000040003D094F83D0010B107E0012010BD5E
:102C4000002084F83C00204600F00CF8022084F8B4
:102C50003D00211D206802F08DF9012084F83D001F
:102C6000002010BD704770470168B1F1804F04D05B
:102C70000A4A904203D100F0E9BEFFF70DB90848B7
:102C800081420AD1074801680A6842F001020A60DD
:102C90000068C16841F00101C1607047C80F0020A1
:102CA00000000140480F0020704770B5040004D0B8
:102CB00094F83900002510B106E0012070BD84F8B9
:102CC0003850204600F022F8242084F8390020688B
:102CD000C16821F40051C160204602F0A7FA2068C3
:102CE000016921F4904101612068416921F02A01C4
:102CF00041612068C16841F40051C160E563202052
:102D000084F8390084F83A00002070BD2DE9F04FB6
:102D100087B0054614216846FDF7FCFA7848DFF8CD
:102D2000DCC1143801212B680024DFF8D491032280
:102D300006154F044FF002084FF0070B634547D1CB
:102D4000D9F8005045F01005C9F80050D9F8003006
:102D500003F010030593036843F002030360036864
:102D600003F002030593036843F001030360006866
:102D70008A4600F00100059080208DE80105CDE92C
:102D8000032B91465D4669465E48FEF7A7FD70102D
:102D90008DE80105CDE9039569465B48FEF79EFD88
:102DA0005B485A4901607104C0E90114C0E9034657
:102DB000C9144461C0E90641C0E908746038FEF7EF
:102DC000B9FC002801D0FDF774FF07B0BDE8F08F13
:102DD000DFF840C1634544D1494B1B1FD3F800C005
:102DE0004CF4802CC3F800C01B6803F480230593C7
:102DF000036843F004030360006802AB00F00400C2
:102E0000059083E806084FF44060CDE90008694664
:102E10004148FEF763FDDFF8F8804049A8F16008FB
:102E20004046C8F800104FF00061C0E90114C0E945
:102E30000346C8F81440C8F81840C8E90747C8F85E
:102E40002440FEF777FC08B1FDF733FFC5F8348066
:102E5000002205212720C8F83850FFF7A3F82720C3
:102E600049E0DFF8BCC06345AFD1D9F800C04CF0F1
:102E7000200CC9F800C0D9F8003003F020030593F6
:102E8000036843F0400303600068CDE9021200F0DC
:102E9000400005904FF48440CDE9000808200490DC
:102EA00069462048FEF71AFDDFF86480174908F1EB
:102EB000600860394046C8F800108905C0E901146F
:102EC000C0E90346C8F820704FF48071C8F8144078
:102ED000C8E90641C8F82440FEF72CFC08B1FDF70C
:102EE000E8FEC5F83480002205214720C8F8385094
:102EF000FFF758F84720FFF747F866E70010014052
:102F0000443802400004024000000240886402404D
:102F1000A81100200048004000080240286002403C
:102F20000014014000180240FEE701684A69D243DC
:102F300052050FD46FF480624A61002140F8301FBF
:102F4000202242738173026942F00402026101731C
:102F500001207047002070472DE9F84F04460068B3
:102F600089460B9D01689846174641F480610160CF
:102F70002068016841F48071016000954FF0011AEA
:102F80000022514620460A9B00F059F8002853D1F0
:102F9000216809F0FE0008610AF1010B2B46594631
:102FA00020460A9A00F07FF8F0BB206841698069EA
:102FB00000902A4620460A9900F0F3F840B1206CB0
:102FC000042839D12068016841F40071016033E0C0
:102FD000FEB2B8F1010F09D02168380A08612A460B
:102FE00020460A9900F0DDF80028E8D12068066143
:102FF0002A4620460A9900F0D4F80028DFD120683C
:10300000016841F48071016000950022514620461C
:103010000A9B00F014F838B9216809F0FF0040F06D
:10302000010008612B4600E006E0594620460A9A56
:1030300000F039F8002800D00120BDE8F88F2DE914
:10304000F0471E4690460D460446C1F30747DDF89B
:10305000209008E0701C06D0FEF71EFDA0EB0900D2
:10306000B0420FD876B12068012F18D0806925EAC8
:1030700000000004000C14D000214145EAD00020DB
:10308000BDE8F087002044F8300F20216173A07361
:10309000216941F02001216120730120F0E740699E
:1030A000E5E70121E9E72DE9F0479A4691460E460A
:1030B000044600254FF02008C1F3074725E02068AB
:1030C0004069C043400514D42068016841F4007190
:1030D000016021686FF480604861256384F83D8059
:1030E00084F83E50206C40F00400206484F83C508A
:1030F0001FE0B9F1FF3F08D0FEF7CEFCA0EB0A01BC
:1031000049450CD8B9F1000F09D02068012F13D020
:10311000806926EA00000004000C0BD0CFE744F8D9
:10312000305F84F80D80A573206940F02000206195
:1031300025730120BDE8F0874069EAE72DE9F041F9
:10314000002590460E460446202717E04069C043FC
:10315000C0060CD454F8301B6FF01000486144F8DE
:1031600010596777A577206A2062257717E0FEF768
:1031700093FCA0EB0800B04208D83EB1206841693A
:10318000C9434906E2D40020BDE8F08144F8305F2D
:103190006773A573206940F020002061257301202A
:1031A000F2E770B516460D4604460DE02046FFF7DF
:1031B000BCFE08B1012070BD681C05D0FEF76CFC98
:1031C000801BA84207D835B120684069C04300067B
:1031D000ECD4002070BD002044F8300F2021617332
:1031E000A073216941F0200121612073E2E7000012
:1031F0000F4810B50D4901600621416000214FF4D0
:1032000080328160C0E903124FF4401242610176BE
:1032100041768176C17601774177FDF7C0FF0028BE
:1032200003D0BDE81040FDF744BD10BD0064004070
:10323000380B00200F4810B50D4901600621416090
:1032400000214FF480328160C0E903124FF4401234
:103250004261017641768176C17601774177FDF74B
:103260009EFF002803D0BDE81040FDF722BD10BD31
:1032700000680040600B0020194808B5016841F45F
:1032800000110160016801F400110091016841F42E
:10329000800101600068002200F480000090052198
:1032A0000C20FEF77FFE0C20FEF76EFE00220521AB
:1032B0003920FEF777FE3920FEF766FE0022114620
:1032C0003A20FEF76FFE3A20FEF75EFE002205214F
:1032D0003B20FEF767FEBDE808403B20FEF754BEEA
:1032E0003038024010B596B01C2211496846FCF7F0
:1032F000F8FF0021684602F0C5FC0E4C0C491C2268
:1033000020601C3107A8FCF7ECFF002107A802F0A1
:10331000B9FC074960601C2238310EA8FCF7E1FFB8
:1033200000210EA802F0AEFCA06016B010BD000097
:103330009C6C0008580000202DE9F04F87B0142144
:103340006846FCF7E7FF6B480025016841F0020181
:103350000160016801F002010591016841F040013E
:103360000160016801F040010591016841F001012F
:103370000160016801F001010591016841F0080157
:103380000160016801F008010591016841F0040144
:103390000160016801F004010591016841F020011C
:1033A0000160016801F020010591016841F0800190
:1033B0000160016801F080010591016841F0100190
:1033C00001600068DFF830B100F010004FF4807643
:1033D0000590002231465846FEF758FBDFF81C9155
:1033E000012240214846FEF751FBDFF814814FF4DB
:1033F000E057002239464046FEF748FBDFF804A1BB
:10340000012210215046FEF741FB012211463E48A1
:10341000FEF73CFB0320CDE9000501246946029438
:103420003A48FEF75BFA0096CDE9014569465846F1
:103430000395FEF753FA4020CDE900040294694653
:1034400048460394FEF74AFA0097CDE901456946DC
:1034500040460395FEF742FA2D4E0820CDE90006BE
:10346000694602944846FEF739FA2A486946CDE98A
:10347000004002955046FEF731FA1020CDE90004D5
:10348000022569465046CDE90245FEF727FA30206D
:10349000CDE90006694602945846FEF71FFA0094EB
:1034A000694619480194CDE90245FEF717FA002252
:1034B00011460620FEF776FD0620FEF765FD002288
:1034C00011460920FEF76EFD0920FEF75DFD002282
:1034D00011460A20FEF766FD0A20FEF755FD002280
:1034E00011461720FEF75EFD1720FEF74DFD07B0D1
:1034F000BDE8F08F3038024000080240001802405A
:10350000001C02400000024000040240001402407F
:1035100000002110000011100D4810B50B4901608A
:103520000C49416000214FF480428160C0E90312E0
:1035300041618161C1610162FEF7B4FA002803D0E4
:10354000BDE81040FDF7B5BB10BD0000005C0040B9
:10355000DC0D0020801A0600104810B50E490160ED
:103560004FF482714160002102228160C0E90312A0
:1035700001224261520282613822C0E90721416280
:1035800081620A21C162FEF7D7FF002803D0BDE89F
:103590001040FDF78EBB10BD00300140300E002002
:1035A00010B588B01C216846FCF7B4FE14481349D6
:1035B0000024C0E9001441F28731C0E902410461EE
:1035C0008461FFF7C6F808B1FDF773FB0C48FFF7FD
:1035D0002EFB08B1FDF76DFB6020CDE900040294DD
:1035E0000022694606480494FFF7B9FA08B1FDF7CE
:1035F00060FB0348FFF75AFA08B010BD00440140D1
:10360000081000201FB5002110480091019102917F
:103610000D4A039102605322C0E901210422C0E94E
:1036200003218161FFF795F808B1FDF742FB4FF4E4
:103630008050009069460548FFF719F9002801D02D
:10364000FDF737FB1FBD00000018004048100020A8
:1036500010B596B000240F94109411941294139402
:103660001C2168461494FCF755FE202107A8FCF79E
:1036700051FE354833490160A721C0E9011444F6E1
:103680001F61C0E9031444618461FFF762F808B167
:10369000FDF70FFB4FF480500F900FA92A48FFF75A
:1036A000E6F808B1FDF705FB2748FFF7C0FA08B1B7
:1036B000FDF7FFFA139413A923481494FFF728F891
:1036C00008B1FDF7F6FA602000904FF47A70CDE96A
:1036D0000104039404940594002269461A48069450
:1036E000FFF73DFA08B1FDF7E4FA042269461648EF
:1036F000FFF735FA08B1FDF7DCFA082269461248EF
:10370000FFF72DFA08B1FDF7D4FA0C2269460E48EE
:10371000FFF725FA08B1FDF7CCFA0794089409944D
:103720004FF400500A94CDE90B4007A906480E94C7
:10373000FEF7C4FF08B1FDF7BCFA0348FFF7B6F97E
:1037400016B010BD00000140480F002010B586B033
:10375000002416480094019402940394049412499E
:10376000059401605321C0E901143121C0E903141B
:103770008461FEF7EEFF08B1FDF79BFA4FF480502D
:10378000009069460948FFF772F808B1FDF791FA11
:10379000049404A905480594FEF7BAFF002801D057
:1037A000FDF787FA06B010BD00040040880F002026
:1037B0001CB500240E4800940C490194016040F2AD
:1037C0004731C0E9011463218461C160FEF7C1FF84
:1037D00008B1FDF76EFA0094694605480194FEF7BA
:1037E00097FF002801D0FDF764FA1CBD00100040CF
:1037F000C80F00200C4810B50A4901600B49416010
:10380000002181600C22C160C0E904128161C161A4
:10381000FFF74BFA002803D0BDE81040FDF749BA86
:1038200010BD00000010014088100020A08601009B
:103830000C4810B50A4901600B49416000218160C4
:103840000C22C160C0E904128161C161FFF72DFA49
:10385000002803D0BDE81040FDF72BBA10BD0000D2
:1038600000480040C8100020A08601000C4810B598
:103870000A4901600B494160002181600C22C1604E
:10388000C0E904128161C161FFF70FFA002803D07B
:10389000BDE81040FDF70DBA10BD00000014014056
:1038A00008110020A0860100FEE7704730B4034CE9
:1038B0008467034CC46730BC02F00EBAD95C0008C0
:1038C000E75C00082DE9F047574F564E0025DFF81A
:1038D0005C91DFF85C817C6897E0705DA5287DD104
:1038E00074190521204602F099FE002876D0B4F81C
:1038F00001102046093102F073FE00286ED0B4F8A2
:103900000500A0F5007101391DD1E17989F8001099
:10391000217A89F80110B4F80910A9F80210B4F856
:103920000B10A9F80410B4F80D10A9F80810B4F899
:103930000F10A9F80C10B4F81110A9F80A10B4F877
:103940001310A9F80E10B4F80500A0F500710239A3
:1039500017D1B4F81110A9F81010B4F81310A9F881
:103960001210B4F80910A9F83610D4F80B10C9F8E1
:103970003810B4F80F10A9F83C10B4F80710A9F8E3
:103980003410B4F80500A0F5007103390FD1D4F854
:103990000710C9F82410D4F80B10C9F82810D4F86F
:1039A0000F10C9F82C10D4F81310C9F83010B4F85F
:1039B0000500B0F5017F02D1E17989F80710B4F86C
:1039C0000500A0F50071073919D1E07901280CD163
:1039D00099ED060A89ED080A217A00E013E089F8DA
:1039E0001410D4F80910C9F81810E079022806D18B
:1039F000217A89F81510D4F80910C9F81C106078DC
:103A000009352844C5B26D1CEDB2B8F800008542F6
:103A1000FFF463AF7C60BDE8F04764210148FCF728
:103A200079BC00005C08002040000020B40A00209F
:103A30001800002010B50446FDF73CF9024800EBE1
:103A4000840080ED000A10BD080B00200248816848
:103A5000491C816070470000F40A002010B504463C
:103A6000FDF728F9024800EB840080ED000A10BD44
:103A7000200B0020F0B51C480A251426477A8288BE
:103A8000C0881A49C0F580641948A2F58062012FE8
:103A9000036814D0022F0CD0032F08D00978012915
:103AA00009D0032907D002290BD0016813E00127B0
:103AB00000E003270F7092FBF5F20E4904E00227A5
:103AC0000F7092FBF5F20C490D682A440A6094FBD2
:103AD000F6F119440160094A914203DB4FF4B972CF
:103AE000914200DD0260F0BD360800200800002091
:103AF0001401002004010020F4000020E0FCFFFF7E
:103B000018480188C1F30A0200F112010A804278C4
:103B1000D308827843EA4213C3F30A034B80C37885
:103B2000920942EA8303027943EA8223C3F30A0338
:103B30008B805308427943EAC213C3F30A03CB8054
:103B400093090B72C2F301124A72C2884A81028938
:103B50008A814289CA81027B0A74427B4A74C08985
:103B6000488270472408002008B502F03FFE124E3C
:103B70000025124C4FF0FF380127009041460120EC
:103B800002F0D8FA012812D1FFF768FFFFF7B8FF5B
:103B9000307A012804D0022804D0032807D105E098
:103BA000A57004E0A570FFF765FF00E0A770012194
:103BB000684602F05BF8E1E73608002008000020C4
:103BC0002DE9F74FF84981B00868026822F0010238
:103BD0000260F6480268136823F00103136003E0F3
:103BE0000A6822F001020A60EF4909680A68D207F0
:103BF000F6D103E0016821F001010160EB480068A3
:103C00000168C907F6D1EA48EA4AEB4BD0F84C9074
:103C1000E84CE94DE74EE84FDFF898E3DFF894C34E
:103C2000D9F80000E449483A603318341835303E7A
:103C300078374FF4006A0CF1300C704535D9884262
:103C400005D0904203D0984201D0A04201D120205B
:103C500026E0A84205D0B04203D0B84201D060456A
:103C600001D150461CE0DFF8508308F13008404590
:103C700011D0DFF84083A8F1180840450BD0DFF8D9
:103C8000388308F19008404505D0DFF8288308F113
:103C90004808404502D14FF4001001E04FF00060A9
:103CA000DFF81083A8F14C083AE0DFF80C8308F144
:103CB000A808404537D9884205D0904203D09842A1
:103CC00001D0A04201D1202026E0A84205D0B04278
:103CD00003D0B84201D0604501D150461CE0DFF866
:103CE000D88208F13008404511D0DFF8C882A8F129
:103CF000180840450BD0DFF8C08208F19008404515
:103D000005D0DFF8B08208F14808404502D14FF4F1
:103D1000001001E04FF00060DFF89882A8F1500831
:103D2000C8F8000074E0DFF8908208F148084045C8
:103D300037D9884205D0904203D0984201D0A042A2
:103D400001D1202026E0A84205D0B04203D0B842DD
:103D500001D0604501D150461CE0DFF85C8208F1DB
:103D60003008404511D0DFF84C82A8F118084045D2
:103D70000BD0DFF8448208F19008404505D0DFF809
:103D8000348208F14808404502D14FF4001001E0A8
:103D90004FF00060DFF82082A8F11008C8F80C008E
:103DA00036E0884205D0904203D0984201D0A0422C
:103DB00001D1202026E0A84205D0B04203D0B8426D
:103DC00001D0604501D150461CE0DFF8EC8108F1DC
:103DD0003008404511D0DFF8DC81A8F118084045D3
:103DE0000BD0DFF8D48108F19008404505D0DFF80A
:103DF000C48108F14808404502D14FF4001001E0A9
:103E00004FF00060DFF8B081A8F11008C8F8080092
:103E1000D9F800004FF4806B704535D9884205D041
:103E2000904203D0984201D0A04201D1102026E058
:103E3000A84205D0B04203D0B84201D0604501D1BC
:103E400058461CE0DFF8708108F13008404511D079
:103E5000DFF86081A8F1180840450BD0DFF85881E1
:103E600008F19008404505D0DFF8488108F148087E
:103E7000404502D14FF4801001E04FF08060DFF840
:103E80003481A8F14C083AE0DFF82C8108F1A80849
:103E9000404537D9884205D0904203D0984201D09E
:103EA000A04201D1102026E0A84205D0B04203D0A4
:103EB000B84201D0604501D158461CE0DFF8F880D7
:103EC00008F13008404511D0DFF8E880A8F1180863
:103ED00040450BD0DFF8E08008F19008404505D060
:103EE000DFF8D08008F14808404502D14FF4801037
:103EF00001E04FF08060DFF8BC80A8F15008C8F8FE
:103F000000007AE0DFF8B08008F14808404537D972
:103F1000884205D0904203D0984201D0A04201D1FE
:103F2000102026E0A84205D0B04203D0B84201D00C
:103F3000604501D158461CE0DFF87C8008F130086C
:103F4000404511D0DFF86C80A8F1180840450BD02F
:103F5000DFF8648008F19008404505D0DFF8548010
:103F600008F14808404502D14FF4801001E04FF0BD
:103F70008060DFF84480A8F11008C8F80C003CE02D
:103F8000884205D0904203D0984201D0A04201D18E
:103F900010202CE0A84205D0B04203D0B84201D096
:103FA00060450BD1584622E0880E0020E80E002024
:103FB000300E00205864024010600240DFF868892B
:103FC00040450FD0DFF8648940450BD0DFF85889B1
:103FD00008F16008404505D0DFF8508908F1600815
:103FE000404502D14FF4801001E04FF08060DFF8CF
:103FF0003889A8F14008C8F80800D9F800007045D1
:1040000032D9884205D0904203D0984201D0A042D4
:1040100001D1082023E0A84205D0B04203D0B84225
:1040200001D0604502D14FF4007018E0DFF8F88845
:1040300040450FD0DFF8F48840450BD0DFF8E88822
:1040400008F16008404505D0DFF8E08808F1600815
:10405000404502D14FF4002001E04FF00070DFF83E
:10406000CC88A8F1340837E0DFF8BC8808F178087C
:10407000404534D9884205D0904203D0984201D0BF
:10408000A04201D1082023E0A84205D0B04203D0CD
:10409000B84201D0604502D14FF4007018E0DFF85B
:1040A000888840450FD0DFF8848840450BD0DFF882
:1040B000788808F16008404505D0DFF8708808F17D
:1040C0006008404502D14FF4002001E04FF000703D
:1040D000DFF85888A8F13808C8F800006EE0DFF86B
:1040E000488808F11808404534D9884205D09042E4
:1040F00003D0984201D0A04201D1082023E0A84279
:1041000005D0B04203D0B84201D0604502D14FF48F
:10411000007018E0DFF8108840450FD0DFF80C88F9
:1041200040450BD0DFF8008808F16008404505D015
:10413000DFF8F88708F16008404502D14FF400200D
:1041400001E04FF00070DFF8E087A8F14008C8F800
:104150000C0033E0884205D0904203D0984201D051
:10416000A04201D1082023E0A84205D0B04203D0EC
:10417000B84201D0604502D14FF4007018E0DFF87A
:10418000A88740450FD0DFF8A48740450BD0DFF863
:10419000988708F16008404505D0DFF8908708F15E
:1041A0006008404502D14FF4002001E04FF000705C
:1041B000DFF87487A8F14008C8F80800DFF86C87BA
:1041C000D9F8000008F118084FF4807E404531D935
:1041D000884205D0904203D0984201D0A04201D13C
:1041E000042022E0A84205D0B04203D0B84201D05A
:1041F000604501D1704618E0DFF82C8740450FD0AC
:10420000DFF8288740450BD0DFF81C8708F16008ED
:10421000404505D0DFF8148708F16008404502D119
:104220004FF4802001E04FF08070DFF80087A8F1A4
:10423000340836E0DFF8F08608F17808404533D9D5
:10424000884205D0904203D0984201D0A04201D1CB
:10425000042022E0A84205D0B04203D0B84201D0E9
:10426000604501D1704618E0DFF8BC8640450FD0AC
:10427000DFF8B88640450BD0DFF8AC8608F160085F
:10428000404505D0DFF8A48608F16008404502D11A
:104290004FF4802001E04FF08070DFF89086A8F1A5
:1042A0003808C8F800006CE0DFF87C8608F11808D0
:1042B000404533D9884205D0904203D0984201D07E
:1042C000A04201D1042022E0A84205D0B04203D090
:1042D000B84201D0604501D1704618E0DFF8488649
:1042E00040450FD0DFF8448640450BD0DFF83886D4
:1042F00008F16008404505D0DFF8308608F1600815
:10430000404502D14FF4802001E04FF08070DFF88B
:104310001886A8F14008C8F80C0032E0884205D0A1
:10432000904203D0984201D0A04201D1042022E063
:10433000A84205D0B04203D0B84201D0604501D1B7
:10434000704618E0DFF8E08540450FD0DFF8DC85E7
:1043500040450BD0DFF8D08508F16008404505D016
:10436000DFF8C88508F16008404502D14FF480208D
:1043700001E04FF08070DFF8B085A8F14008C8F880
:104380000800DFF8A885D9F8000008F118084FF4F4
:104390008039404530D9884205D0904203D09842B8
:1043A00001D0A04201D1012021E0A84205D0B042B5
:1043B00003D0B84201D0604501D1402017E0DFF8BA
:1043C000688540450FD0DFF8648540450BD0DFF8A5
:1043D000588508F16008404505D0DFF8508508F1A0
:1043E0006008404501D1484601E04FF48000DFF805
:1043F0003C85A8F1340835E0DFF82C8508F1780811
:10440000404532D9884205D0904203D0984201D02D
:10441000A04201D1012021E0A84205D0B04203D042
:10442000B84201D0604501D1402017E0DFF8F884A0
:1044300040450FD0DFF8F48440450BD0DFF8E88426
:1044400008F16008404505D0DFF8E08408F1600815
:10445000404501D1484601E04FF48000DFF8CC84AC
:10446000A8F13808C8F800006AE0DFF8BC8408F159
:104470001808404532D9884205D0904203D098426E
:1044800001D0A04201D1012021E0A84205D0B042D4
:1044900003D0B84201D0604501D1402017E0DFF8D9
:1044A000888440450FD0DFF8848440450BD0DFF886
:1044B000788408F16008404505D0DFF8708408F181
:1044C0006008404501D1484601E04FF48000DFF824
:1044D0005884A8F14008C8F80C0031E0884205D0A3
:1044E000904203D0984201D0A04201D1012021E0A6
:1044F000A84205D0B04203D0B84201D0604501D1F6
:10450000402017E0DFF8208440450FD0DFF81C84FE
:1045100040450BD0DFF8108408F16008404505D015
:10452000DFF8088408F16008404501D1484601E001
:104530004FF48000DFF8F083A8F14008C8F80800C5
:10454000FB48DFF8E883806C009008F118080068E9
:10455000404531D9884205D0904203D0984201D0DD
:10456000A04201D1202022E0A84205D0B04203D0D1
:10457000B84201D0604501D1504618E0DFF8A88369
:1045800040450FD0DFF8A48340450BD0DFF8988377
:1045900008F16008404505D0DFF8908308F1600815
:1045A000404502D14FF4001001E04FF00060DFF809
:1045B0007C83A8F1340836E0DFF86C8308F17808D2
:1045C000404533D9884205D0904203D0984201D06B
:1045D000A04201D1202022E0A84205D0B04203D061
:1045E000B84201D0604501D1504618E0DFF8388369
:1045F00040450FD0DFF8348340450BD0DFF82883E7
:1046000008F16008404505D0DFF8208308F1600814
:10461000404502D14FF4001001E04FF00060DFF898
:104620000C83A8F13808C8F800006CE0DFF8F882C5
:1046300008F11808404533D9884205D0904203D08C
:10464000984201D0A04201D1202022E0A84205D00A
:10465000B04203D0B84201D0604501D1504618E0C5
:10466000DFF8C48240450FD0DFF8C08240450BD050
:10467000DFF8B48208F16008404505D0DFF8AC826D
:1046800008F16008404502D14FF4001001E04FF0FE
:104690000060DFF89482A8F14008C8F80C0032E00E
:1046A000884205D0904203D0984201D0A04201D167
:1046B000202022E0A84205D0B04203D0B84201D069
:1046C000604501D1504618E0DFF85C8240450FD0CC
:1046D000DFF8588240450BD0DFF84C8208F16008C3
:1046E000404505D0DFF8448208F16008404502D11A
:1046F0004FF4001001E04FF00060DFF82C82A8F1C9
:104700004008C8F808000098DFF820A200680AF105
:10471000180A504531D9884205D0904203D09842BA
:1047200001D0A04201D1102022E0A84205D0B04221
:1047300003D0B84201D0604501D1584618E0DFF8F7
:10474000E88140450FD0DFF8E48140450BD0DFF829
:10475000D88108F16008404505D0DFF8D08108F124
:104760006008404502D14FF4801001E04FF08060B6
:10477000DFF8B881A8F1340836E0DFF8AC8108F141
:104780007808404533D9884205D0904203D09842FA
:1047900001D0A04201D1102022E0A84205D0B042B1
:1047A00003D0B84201D0604501D1584618E0DFF887
:1047B000788140450FD0DFF8748140450BD0DFF899
:1047C000688108F16008404505D0DFF8608108F194
:1047D0006008404502D14FF4801001E04FF0806046
:1047E000DFF84881A8F13808C8F800006CE0DFF86D
:1047F000388108F11808404533D9884205D09042E5
:1048000003D0984201D0A04201D1102022E0A8425A
:1048100005D0B04203D0B84201D0604501D158461E
:1048200018E0DFF8048140450FD0DFF800814045F3
:104830000BD0DFF8F48008F16008404505D0DFF8C0
:10484000EC8008F16008404502D14FF4801001E08F
:104850004FF08060DFF8D080A8F14008C8F80C0065
:1048600032E0884205D0904203D0984201D0A04265
:1048700001D1102022E0A84205D0B04203D0B842B6
:1048800001D0604501D1584618E0DFF89C804045D2
:104890000FD0DFF8988040450BD0DFF88C8008F10E
:1048A0006008404505D0DFF8848008F16008404585
:1048B00002D14FF4801001E04FF08060DFF8688093
:1048C000A8F14008C8F8080000980068504536D99B
:1048D000884205D0904203D0984201D0A04201D135
:1048E000082029E0A84205D0B04203D0B84201D048
:1048F000604502D14FF400701EE0DFF82C80404587
:104900000FD0DFF8288040450BD0DFF81C8008F17D
:104910006008404505D0DFF8148008F16008404584
:1049200008D14FF4002007E040600240406402409C
:10493000300E00204FF00070DFF8E88439E0DFF837
:10494000E884404538D9884205D0904203D0984247
:1049500001D0A04201D1082027E0A84205D0B042F2
:1049600003D0B84201D0604502D14FF400701CE082
:10497000DFF8B484A8F17808404511D0DFF8A484AA
:1049800008F1340840450BD0DFF89C84A8F11808E2
:10499000404505D0DFF88C8408F19408404502D1E9
:1049A0004FF4002001E04FF00070DFF87884A8F1A8
:1049B0000408C8F8000076E0DFF86C84A8F160080D
:1049C000404538D9884205D0904203D0984201D062
:1049D000A04201D1082027E0A84205D0B04203D070
:1049E000B84201D0604502D14FF400701CE0DFF8FE
:1049F0003884A8F17808404511D0DFF8288408F100
:104A0000340840450BD0DFF82084A8F11808404551
:104A100005D0DFF8108408F19408404502D14FF426
:104A2000002001E04FF00070DFF8FC83A8F1B80827
:104A3000C8F80C0037E0884205D0904203D0984275
:104A400001D0A04201D1082027E0A84205D0B04201
:104A500003D0B84201D0604502D14FF400701CE091
:104A6000DFF8C483A8F17808404511D0DFF8B4839B
:104A700008F1340840450BD0DFF8AC83A8F11808E2
:104A8000404505D0DFF89C8308F19408404502D1E9
:104A90004FF4002001E04FF00070DFF88C83A8F1A4
:104AA000B808C8F8080000980068504533D9884213
:104AB00005D0904203D0984201D0A04201D10420F9
:104AC00026E0A84205D0B04203D0B84201D06045EC
:104AD00001D170461CE0DFF85083A8F1780840450A
:104AE00011D0DFF8408308F1340840450BD0DFF8DF
:104AF0003883A8F11808404505D0DFF8288308F16D
:104B00009408404502D14FF4802001E04FF08070BE
:104B1000DFF8108338E0DFF81083404537D988424A
:104B200005D0904203D0984201D0A04201D1042088
:104B300026E0A84205D0B04203D0B84201D060457B
:104B400001D170461CE0DFF8E082A8F1780840450A
:104B500011D0DFF8D08208F1340840450BD0DFF8DF
:104B6000C882A8F11808404505D0DFF8B88208F1DE
:104B70009408404502D14FF4802001E04FF080704E
:104B8000DFF8A082A8F10408C8F8000074E0DFF89C
:104B90009882A8F16008404537D9884205D09042F4
:104BA00003D0984201D0A04201D1042026E0A842BF
:104BB00005D0B04203D0B84201D0604501D1704663
:104BC0001CE0DFF86482A8F17808404511D0DFF8D6
:104BD000548208F1340840450BD0DFF84C82A8F12C
:104BE0001808404505D0DFF83C8208F1940840459C
:104BF00002D14FF4802001E04FF08070DFF828826E
:104C0000A8F1B808C8F80C0036E0884205D09042F8
:104C100003D0984201D0A04201D1042026E0A8424E
:104C200005D0B04203D0B84201D0604501D17046F2
:104C30001CE0DFF8F481A8F17808404511D0DFF8D6
:104C4000E48108F1340840450BD0DFF8DC81A8F19D
:104C50001808404505D0DFF8CC8108F1940840459C
:104C600002D14FF4802001E04FF08070DFF8B8816E
:104C7000A8F1B808C8F8080000980068504529D97C
:104C8000884205D0904203D0984201D0A04201D181
:104C900001201DE0A84205D0B04203D0B84201D0A7
:104CA000604501D1402013E05F49783988420BD03C
:104CB0005C493431884207D05B491839884203D0B7
:104CC00058499431884201D1484601E04FF48000B0
:104CD00054492DE0DFF8508140452BD9884205D05A
:104CE000904203D0984201D0A04201D101201DE0A2
:104CF000A84205D0B04203D0B84201D0604501D1EE
:104D0000402013E04849783988420BD04549343176
:104D1000884207D044491839884203D04149943128
:104D2000884201D1484601E04FF480003D49091F07
:104D300008605CE0DFF8F080A8F1600840452BD9FE
:104D4000884205D0904203D0984201D0A04201D1C0
:104D500001201DE0A84205D0B04203D0B84201D0E6
:104D6000604501D1402013E02F49783988420BD0AB
:104D70002C493431884207D02B491839884203D056
:104D800028499431884201D1484601E04FF480001F
:104D90002549B839C8602AE0884205D0904203D03E
:104DA000984201D0A04201D101201DE0A84205D0C7
:104DB000B04203D0B84201D0604501D1402013E099
:104DC0001949783988420BD016493431884207D0C6
:104DD00015491839884203D012499431884201D1CB
:104DE000484601E04FF480000F49B83988600F4809
:104DF00002990268D1600E49019A0B68DA60036873
:104E0000039A5A600B68039A5A600068026842F07D
:104E1000010202600868016841F001010160BDE81B
:104E2000FF8F00000C640240B8600240880E002032
:104E3000E80E0020012000F012FFFBE710B5502023
:104E400080F31188BFF34F8FBFF36F8F01F0D4FC55
:104E500018B104494FF080500860002080F3118899
:104E600010BD000004ED00E030B593B0302168467D
:104E7000FBF750FA14210CA8FBF74CFA1A4800254E
:104E8000016841F080510160006800F0805011908D
:104E90001648016841F4804101600068022400F472
:104EA0008040119001200090000401908001CDE924
:104EB00006400C2008904FF4A870CDE909040420A6
:104EC0000B906846FDF7AAF90CA90F2081E8310084
:104ED0004FF4A0500F90E002109005210CA8FDF7B0
:104EE00093F813B030BD000040380240007000401D
:104EF0001048016841F4700101600F48016841F0F9
:104F0000010101600C4A00210832116002680B4B5C
:104F10001A400260031D0A4A1A60026822F48022C5
:104F2000026005480C30016002495806803908606B
:104F30007047000088ED00E000380240FFFFF6FEF9
:104F4000103000240148FDF7FEBC0000A012002034
:104F50000148FDF7F8BC0000880F00200148FDF76C
:104F6000F2BC0000C80F00200148FDF7ECBC0000B7
:104F700048100020F0B50268254C264D264E274FDC
:104F8000274B4FF0804CA04209D0604507D0A84283
:104F900005D0B04203D0B84201D0984204D122F0EB
:104FA000700E4A6842EA0E02A0421BD0604519D03A
:104FB000A84217D0B04215D0B84213D0984211D0B1
:104FC000184DA8420ED0184DA8420BD0174DA8423C
:104FD00008D0174DA84205D0164DA84202D0164D54
:104FE000A84203D122F44075CA682A434D6922F0D1
:104FF00080022A4302608A68C2620A688262A04212
:1050000001D0984201D10969016301214161F0BDDC
:10501000000001400004004000080040000C004077
:1050200000040140004001400044014000480140AC
:1050300000180040001C00400020004010B58468AB
:1050400042EA032224F47F440A432243826010BDD3
:10505000826822F070020A4342F0070181607047C3
:10506000F0B5026A22F001020262036A42688469B2
:10507000124E24F073050C682C4323F002058B6854
:105080002B430D4DA84201D0B04205D123F00807B3
:10509000CB683B4323F00403A84201D0B04205D1C2
:1050A0004D6922F4407215438A692A434260846143
:1050B000496841630362F0BD000001400004014003
:1050C000F0B5026A22F010020262026A4368846943
:1050D0000D6824F4E64444EA05248D6822F0200299
:1050E00042EA05120F4D104EA84201D0B04206D13F
:1050F000CF6822F0800242EA071222F04002A84262
:1051000001D0B04207D14D6923F4406343EA8503DF
:105110008D6943EA85034360846149688163026263
:10512000F0BD00000000014000040140F0B5026A3B
:1051300022F480720262026A4368C46922F4007237
:1051400024F073050C68124E2C438D6842EA052248
:105150000E4DA84201D0B04206D1CF6822F40062C1
:1051600042EA072222F48062A84201D0B04207D16D
:105170004D6923F4405343EA05138D6943EA05134F
:105180004360C4614968C1630262F0BD0000014030
:105190000004014030B5026A22F480520262046ABF
:1051A0004268C3690D6823F4E64343EA05238D682A
:1051B00024F4005444EA0534084DA84202D0084DB6
:1051C000A84204D14D6922F4804242EA851242602D
:1051D000C36149680164046230BD00000000014001
:1051E0000004014010B5036A046A24F0010404625B
:1051F000846924F0F00444EA021423F00A020A430A
:105200008461026210BD10B5036A23F010030362CB
:105210008369046A23F4704343EA023224F0A00352
:1052200043EA01118261016210BD00002DE9F041E5
:10523000044600680169E26821F4405111430161AC
:105240002169A068E2690843616911432268084343
:10525000D16849F20C6399430143D16020684169E8
:10526000A26921F4407111434161E2696425B2F5FC
:10527000004F9748974922684FF032083FD08A4242
:1052800001D082427CD1FCF787FF00EBC00101EB2B
:10529000001061688900B0FBF1F6FCF77DFF00EBC0
:1052A000C00101EB001061688900B0FBF1F0B0FBB8
:1052B000F5F06FF01801484306EB800108EB011090
:1052C000B0FBF5F000F0F006FCF766FF00EBC00164
:1052D00001EB001061688900B0FBF1F0B0FBF5F064
:1052E00006EB0016FCF758FF00EBC00101EB0010C5
:1052F00061688900B0FBF1F7FCF74EFFD2E08A420B
:1053000001D082423DD1FCF747FF00EBC00101EB29
:10531000001061684900B0FBF1F0B0FBF5F0060148
:10532000FCF73AFF00EBC00101EB00106168490097
:10533000B0FBF1F7FCF730FF00EBC00101EB001010
:1053400061684900B0FBF1F0B0FBF5F06FF01801B7
:10535000484307EB800108EBC100B0FBF5F000F01B
:10536000F80006EB4006FCF717FF00EBC00101EB6D
:10537000001061684900B0FBF1F7FCF70DFF3CE05D
:1053800055E0FCF7F9FE00EBC00101EB001061688D
:105390004900B0FBF1F0B0FBF5F00601FCF7ECFEC4
:1053A00000EBC00101EB001061684900B0FBF1F7B0
:1053B000FCF7E2FE00EBC00101EB00106168490060
:1053C000B0FBF1F0B0FBF5F06FF01801484307EBCC
:1053D000800108EBC100B0FBF5F000F0F80006EB2F
:1053E0004006FCF7C9FE00EBC00101EB001061684C
:1053F0004900B0FBF1F7FCF7BFFE00EBC00101EB89
:10540000001061684900B0FBF1F0B0FBF5F06FF0FF
:105410001801484307EB800108EBC100B0FBF5F031
:1054200000F00700216830448860BDE8F081FCF797
:10543000A3FE00EBC00101EB001061688900B0FB26
:10544000F1F6FCF799FE00EBC00101EB001061687A
:105450008900B0FBF1F0B0FBF5F06FF018014843A4
:1054600006EB800108EB0110B0FBF5F000F0F00650
:10547000FCF782FE00EBC00101EB001061688900BF
:10548000B0FBF1F0B0FBF5F006EB0016FCF774FE94
:1054900000EBC00101EB001061688900B0FBF1F77F
:1054A000FCF76AFE00EBC00101EB001061688900A7
:1054B000B0FBF1F0B0FBF5F06FF01801484307EBDB
:1054C000800108EB0110B0FBF5F000F00F00A9E738
:1054D0000014014000100140F8B53E4C21680868F6
:1054E000C968C0F3001001F01001002870D0002935
:1054F0006ED0394A1068016821F001010160374916
:10550000106888420AD03649884207D03349603152
:10551000884203D032496031884201D1202122E003
:105520002E4B1833D91498421DD02D4B1833984266
:1055300019D02A4B7833984215D0294B78339842AA
:1055400011D0264B8902303398420CD0244B303393
:10555000984208D0214B9033984204D0204B90338E
:10556000984200D089011F4D1D4B4833E960984295
:1055700002D91B4B1B1F05E0184BA833984203D9D7
:10558000174B083B196008E0144E144B4836103B8B
:10559000B04201D9D96000E09960122141601068E1
:1055A000016841F0010101600F480E4908310068AF
:1055B00000F04EFFA86838B10C494FF080500860E9
:1055C000BFF34F8FBFF36F8F206801684068009072
:1055D000F8BD000088100020A811002010600240D3
:1055E00010640240640000206000002004ED00E030
:1055F000F8B53E4C21680868C968C0F3001001F096
:105600001001002870D000296ED0394A1068016856
:1056100021F0010101603749106888420AD03649FB
:10562000884207D033496031884203D03249603123
:10563000884201D1202122E02E4B1833D914984200
:105640001DD02D4B1833984219D02A4B78339842ED
:1056500015D0294B7833984211D0264B890230332C
:1056600098420CD0244B3033984208D0214B9033D1
:10567000984204D0204B9033984200D089011F4DAE
:105680001D4B4833E960984202D91B4B1B1F05E0B4
:10569000184BA833984203D9174B083B196008E010
:1056A000144E144B4836103BB04201D9D96000E08B
:1056B0009960122141601068016841F001010160A8
:1056C0000F480E49091D006800F0C2FE686838B135
:1056D0000C494FF080500860BFF34F8FBFF36F8FBE
:1056E0002068016840680090F8BD0000C8100020E4
:1056F0004811002010600240106402406400002045
:105700006000002004ED00E038B5114801680A6827
:10571000C968C2F30012002A19D00E4C21680A6829
:1057200022F001020A600068016840680090206869
:1057300040680949C0F164000880FEF7C3F8216899
:10574000642048602068016841F00101016038BDB3
:10575000081100200812002018000020FEE70907A9
:10576000090E002804DB00F1E02080F800147047E7
:1057700000F00F0000F1E02080F8141D704702E0F7
:1057800008C8121F08C1002AFAD1704770470020CC
:1057900001E001C1121F002AFBD1704706480168D1
:1057A0000648B1FBF0F2064802704FF47A72B1FB82
:1057B000F2F14160704700009000002040420F006D
:1057C0001000002010B558B1084C491E0BD310F83A
:1057D000013B5340DBB234F8133083EA1222F4E782
:1057E0004FF6FF7010BD104610BD0000846A00081F
:1057F00010B5064C04E000BF10F8013B5340E25CDA
:10580000491E89B2F8D2104610BD00008469000814
:1058100010B5038943810A8852BA02814C88D31A91
:1058200064BA04808C88B3F5805F64BA4480897957
:105830008171016901DD491E03E013F5805F01DA22
:10584000491C016102EB41318289891A416110BD15
:1058500010B5038943810A8852BA02814C88D31A51
:1058600064BA04808988B3F5805F49BA8180016990
:1058700001DD491E03E013F5805F01DA491C016177
:1058800002EB41318289891A416110BD10B504894A
:1058900044810A8852BA02814B885BBA4380898866
:1058A00049BA81800380131B0169B3F5805F01DD74
:1058B000491E03E013F5805F01DA491C016102EB28
:1058C00041318289891A416110BD098849BA018133
:1058D000818170472DE9F0412DED068BDFED698A5E
:1058E000B0EE681A9FED688AF0EE480A9FED679A5D
:1058F0004FF4AF7340F22622B0EE490A0321644808
:10590000FDF7D4FFB0EE081ADFED629AF0EE690AF7
:105910009FED61AA5E484FF4FA5444F62065B0EE5C
:105920004A0A23462A4603218030FDF7BFFF4FF481
:10593000C878B0EE481AF0EE480AB0EE040AE62342
:10594000424603215548FDF7B1FFB7EE001ADFEDDF
:10595000540A9FED540A514843F6982346F2A81280
:1059600003218030FDF7A2FF4FF496762711B0EEA9
:10597000681AF0EE480AB0EE490A33463A46032167
:105980004948FDF793FF4848B0EE081AF0EE690A5F
:10599000B0EE4A0A23462A4603218030FDF786FFEF
:1059A000B0EE681AF0EE480AB0EE490A33463A46BD
:1059B00003213E48FDF77AFF3C48B0EE081AF0EEAE
:1059C000690AB0EE4A0A23462A4603218030FDF7D1
:1059D0006DFFDFED378AB0EE481AF0EE480AB0EE00
:1059E000680AE623424603213248FDF75FFF6C1048
:1059F000304844F25065B0EE481AF0EE480A9FED88
:105A00002E0A23462A4603218030FDF74FFF9FEDE3
:105A10002B9AB0EE481AB0EE680AF0EE490AE62377
:105A2000424603212648FDF741FF1F48B0EE481AC1
:105A3000F0EE480A9FED230A23462A4603218038C8
:105A4000FDF734FF7C0041F28835B6EE001AF0EE27
:105A5000490AB1EE080A23462A4603211A48FDF7EF
:105A600025FFB0EE481AF0EE480ABDEC068B23463F
:105A70002A460321BDE8F0411348B0EE000A803009
:105A8000FDF714BFCDCCCC3D000000009A99593FE2
:105A900024010020B81E853E0000DC4224020020C4
:105AA0008FC2F53C00004842240500202406002057
:105AB000CDCCCC3E2403002000002042CDCC4C3D78
:105AC000240400200000344224070020384910B587
:105AD0000878C4073748D0E9123220D01868006827
